{
  "contractName": "StairwayToHeaven",
  "contractAddress": "0xAD212C24c9C8D822C71a6F34d02C04b856960163",
  "abi": [
    {
      "inputs": [],
      "stateMutability": "nonpayable",
      "type": "constructor"
    },
    {
      "anonymous": false,
      "inputs": [
        {
          "indexed": true,
          "internalType": "address",
          "name": "owner",
          "type": "address"
        },
        {
          "indexed": true,
          "internalType": "address",
          "name": "approved",
          "type": "address"
        },
        {
          "indexed": true,
          "internalType": "uint256",
          "name": "tokenId",
          "type": "uint256"
        }
      ],
      "name": "Approval",
      "type": "event"
    },
    {
      "anonymous": false,
      "inputs": [
        {
          "indexed": true,
          "internalType": "address",
          "name": "owner",
          "type": "address"
        },
        {
          "indexed": true,
          "internalType": "address",
          "name": "operator",
          "type": "address"
        },
        {
          "indexed": false,
          "internalType": "bool",
          "name": "approved",
          "type": "bool"
        }
      ],
      "name": "ApprovalForAll",
      "type": "event"
    },
    {
      "anonymous": false,
      "inputs": [
        {
          "indexed": true,
          "internalType": "address",
          "name": "from",
          "type": "address"
        },
        {
          "indexed": true,
          "internalType": "address",
          "name": "to",
          "type": "address"
        },
        {
          "indexed": true,
          "internalType": "uint256",
          "name": "tokenId",
          "type": "uint256"
        }
      ],
      "name": "Transfer",
      "type": "event"
    },
    {
      "inputs": [
        {
          "internalType": "address",
          "name": "to",
          "type": "address"
        },
        {
          "internalType": "uint256",
          "name": "tokenId",
          "type": "uint256"
        }
      ],
      "name": "approve",
      "outputs": [],
      "stateMutability": "nonpayable",
      "type": "function"
    },
    {
      "inputs": [
        {
          "internalType": "address",
          "name": "owner",
          "type": "address"
        }
      ],
      "name": "balanceOf",
      "outputs": [
        {
          "internalType": "uint256",
          "name": "",
          "type": "uint256"
        }
      ],
      "stateMutability": "view",
      "type": "function"
    },
    {
      "inputs": [
        {
          "internalType": "uint256",
          "name": "tokenId",
          "type": "uint256"
        }
      ],
      "name": "getApproved",
      "outputs": [
        {
          "internalType": "address",
          "name": "",
          "type": "address"
        }
      ],
      "stateMutability": "view",
      "type": "function"
    },
    {
      "inputs": [
        {
          "internalType": "address",
          "name": "owner",
          "type": "address"
        },
        {
          "internalType": "address",
          "name": "operator",
          "type": "address"
        }
      ],
      "name": "isApprovedForAll",
      "outputs": [
        {
          "internalType": "bool",
          "name": "",
          "type": "bool"
        }
      ],
      "stateMutability": "view",
      "type": "function"
    },
    {
      "inputs": [],
      "name": "name",
      "outputs": [
        {
          "internalType": "string",
          "name": "",
          "type": "string"
        }
      ],
      "stateMutability": "view",
      "type": "function"
    },
    {
      "inputs": [
        {
          "internalType": "uint256",
          "name": "tokenId",
          "type": "uint256"
        }
      ],
      "name": "ownerOf",
      "outputs": [
        {
          "internalType": "address",
          "name": "",
          "type": "address"
        }
      ],
      "stateMutability": "view",
      "type": "function"
    },
    {
      "inputs": [
        {
          "internalType": "address",
          "name": "from",
          "type": "address"
        },
        {
          "internalType": "address",
          "name": "to",
          "type": "address"
        },
        {
          "internalType": "uint256",
          "name": "tokenId",
          "type": "uint256"
        }
      ],
      "name": "safeTransferFrom",
      "outputs": [],
      "stateMutability": "nonpayable",
      "type": "function"
    },
    {
      "inputs": [
        {
          "internalType": "address",
          "name": "from",
          "type": "address"
        },
        {
          "internalType": "address",
          "name": "to",
          "type": "address"
        },
        {
          "internalType": "uint256",
          "name": "tokenId",
          "type": "uint256"
        },
        {
          "internalType": "bytes",
          "name": "_data",
          "type": "bytes"
        }
      ],
      "name": "safeTransferFrom",
      "outputs": [],
      "stateMutability": "nonpayable",
      "type": "function"
    },
    {
      "inputs": [
        {
          "internalType": "address",
          "name": "operator",
          "type": "address"
        },
        {
          "internalType": "bool",
          "name": "approved",
          "type": "bool"
        }
      ],
      "name": "setApprovalForAll",
      "outputs": [],
      "stateMutability": "nonpayable",
      "type": "function"
    },
    {
      "inputs": [
        {
          "internalType": "bytes4",
          "name": "interfaceId",
          "type": "bytes4"
        }
      ],
      "name": "supportsInterface",
      "outputs": [
        {
          "internalType": "bool",
          "name": "",
          "type": "bool"
        }
      ],
      "stateMutability": "view",
      "type": "function"
    },
    {
      "inputs": [],
      "name": "symbol",
      "outputs": [
        {
          "internalType": "string",
          "name": "",
          "type": "string"
        }
      ],
      "stateMutability": "view",
      "type": "function"
    },
    {
      "inputs": [
        {
          "internalType": "uint256",
          "name": "index",
          "type": "uint256"
        }
      ],
      "name": "tokenByIndex",
      "outputs": [
        {
          "internalType": "uint256",
          "name": "",
          "type": "uint256"
        }
      ],
      "stateMutability": "view",
      "type": "function"
    },
    {
      "inputs": [
        {
          "internalType": "address",
          "name": "owner",
          "type": "address"
        },
        {
          "internalType": "uint256",
          "name": "index",
          "type": "uint256"
        }
      ],
      "name": "tokenOfOwnerByIndex",
      "outputs": [
        {
          "internalType": "uint256",
          "name": "",
          "type": "uint256"
        }
      ],
      "stateMutability": "view",
      "type": "function"
    },
    {
      "inputs": [],
      "name": "totalSupply",
      "outputs": [
        {
          "internalType": "uint256",
          "name": "",
          "type": "uint256"
        }
      ],
      "stateMutability": "view",
      "type": "function"
    },
    {
      "inputs": [
        {
          "internalType": "address",
          "name": "from",
          "type": "address"
        },
        {
          "internalType": "address",
          "name": "to",
          "type": "address"
        },
        {
          "internalType": "uint256",
          "name": "tokenId",
          "type": "uint256"
        }
      ],
      "name": "transferFrom",
      "outputs": [],
      "stateMutability": "nonpayable",
      "type": "function"
    },
    {
      "inputs": [
        {
          "internalType": "string",
          "name": "existingTokenURI",
          "type": "string"
        }
      ],
      "name": "mint",
      "outputs": [
        {
          "internalType": "uint256",
          "name": "",
          "type": "uint256"
        }
      ],
      "stateMutability": "nonpayable",
      "type": "function"
    },
    {
      "inputs": [
        {
          "internalType": "uint256",
          "name": "tokenId",
          "type": "uint256"
        }
      ],
      "name": "burn",
      "outputs": [],
      "stateMutability": "nonpayable",
      "type": "function"
    },
    {
      "inputs": [
        {
          "internalType": "uint256",
          "name": "tokenID",
          "type": "uint256"
        }
      ],
      "name": "tokenURI",
      "outputs": [
        {
          "internalType": "string",
          "name": "",
          "type": "string"
        }
      ],
      "stateMutability": "view",
      "type": "function"
    },
    {
      "inputs": [],
      "name": "numMinted",
      "outputs": [
        {
          "internalType": "uint256",
          "name": "",
          "type": "uint256"
        }
      ],
      "stateMutability": "view",
      "type": "function"
    }
  ],
  "bytecode": "0x60806040523480156200001157600080fd5b506040518060400160405280601081526020017f5374616972776179546f48656176656e000000000000000000000000000000008152506040518060400160405280600381526020017f5332480000000000000000000000000000000000000000000000000000000000815250816000908051906020019062000096929190620000b8565b508060019080519060200190620000af929190620000b8565b505050620001cd565b828054620000c69062000197565b90600052602060002090601f016020900481019282620000ea576000855562000136565b82601f106200010557805160ff191683800117855562000136565b8280016001018555821562000136579182015b828111156200013557825182559160200191906001019062000118565b5b50905062000145919062000149565b5090565b5b80821115620001645760008160009055506001016200014a565b5090565b7f4e487b7100000000000000000000000000000000000000000000000000000000600052602260045260246000fd5b60006002820490506001821680620001b057607f821691505b60208210811415620001c757620001c662000168565b5b50919050565b612fb880620001dd6000396000f3fe608060405234801561001057600080fd5b50600436106101215760003560e01c80634f6ccce7116100ad578063b88d4fde11610071578063b88d4fde1461032c578063c87b56dd14610348578063d52079b414610378578063d85d3d2714610396578063e985e9c5146103c657610121565b80634f6ccce7146102625780636352211e1461029257806370a08231146102c257806395d89b41146102f2578063a22cb4651461031057610121565b806318160ddd116100f457806318160ddd146101c057806323b872dd146101de5780632f745c59146101fa57806342842e0e1461022a57806342966c681461024657610121565b806301ffc9a71461012657806306fdde0314610156578063081812fc14610174578063095ea7b3146101a4575b600080fd5b610140600480360381019061013b9190611e38565b6103f6565b60405161014d9190611e80565b60405180910390f35b61015e610470565b60405161016b9190611f34565b60405180910390f35b61018e60048036038101906101899190611f8c565b610502565b60405161019b9190611ffa565b60405180910390f35b6101be60048036038101906101b99190612041565b610587565b005b6101c861069f565b6040516101d59190612090565b60405180910390f35b6101f860048036038101906101f391906120ab565b6106ac565b005b610214600480360381019061020f9190612041565b61070c565b6040516102219190612090565b60405180910390f35b610244600480360381019061023f91906120ab565b6107b1565b005b610260600480360381019061025b9190611f8c565b6107d1565b005b61027c60048036038101906102779190611f8c565b61082d565b6040516102899190612090565b60405180910390f35b6102ac60048036038101906102a79190611f8c565b61089e565b6040516102b99190611ffa565b60405180910390f35b6102dc60048036038101906102d791906120fe565b610950565b6040516102e99190612090565b60405180910390f35b6102fa610a08565b6040516103079190611f34565b60405180910390f35b61032a60048036038101906103259190612157565b610a9a565b005b610346600480360381019061034191906122cc565b610ab0565b005b610362600480360381019061035d9190611f8c565b610b12565b60405161036f9190611f34565b60405180910390f35b610380610bb7565b60405161038d9190612090565b60405180910390f35b6103b060048036038101906103ab91906123f0565b610bc8565b6040516103bd9190612090565b60405180910390f35b6103e060048036038101906103db9190612439565b610c24565b6040516103ed9190611e80565b60405180910390f35b60007f780e9d63000000000000000000000000000000000000000000000000000000007bffffffffffffffffffffffffffffffffffffffffffffffffffffffff1916827bffffffffffffffffffffffffffffffffffffffffffffffffffffffff19161480610469575061046882610cb8565b5b9050919050565b60606000805461047f906124a8565b80601f01602080910402602001604051908101604052809291908181526020018280546104ab906124a8565b80156104f85780601f106104cd576101008083540402835291602001916104f8565b820191906000526020600020905b8154815290600101906020018083116104db57829003601f168201915b5050505050905090565b600061050d82610d9a565b61054c576040517f08c379a00000000000000000000000000000000000000000000000000000000081526004016105439061254c565b60405180910390fd5b6004600083815260200190815260200160002060009054906101000a900473ffffffffffffffffffffffffffffffffffffffff169050919050565b60006105928261089e565b90508073ffffffffffffffffffffffffffffffffffffffff168373ffffffffffffffffffffffffffffffffffffffff161415610603576040517f08c379a00000000000000000000000000000000000000000000000000000000081526004016105fa906125de565b60405180910390fd5b8073ffffffffffffffffffffffffffffffffffffffff16610622610e06565b73ffffffffffffffffffffffffffffffffffffffff16148061065157506106508161064b610e06565b610c24565b5b610690576040517f08c379a000000000000000000000000000000000000000000000000000000000815260040161068790612670565b60405180910390fd5b61069a8383610e0e565b505050565b6000600880549050905090565b6106bd6106b7610e06565b82610ec7565b6106fc576040517f08c379a00000000000000000000000000000000000000000000000000000000081526004016106f390612702565b60405180910390fd5b610707838383610fa5565b505050565b600061071783610950565b8210610758576040517f08c379a000000000000000000000000000000000000000000000000000000000815260040161074f90612794565b60405180910390fd5b600660008473ffffffffffffffffffffffffffffffffffffffff1673ffffffffffffffffffffffffffffffffffffffff168152602001908152602001600020600083815260200190815260200160002054905092915050565b6107cc83838360405180602001604052806000815250610ab0565b505050565b6107e26107dc610e06565b82610ec7565b610821576040517f08c379a000000000000000000000000000000000000000000000000000000000815260040161081890612826565b60405180910390fd5b61082a8161120c565b50565b600061083761069f565b8210610878576040517f08c379a000000000000000000000000000000000000000000000000000000000815260040161086f906128b8565b60405180910390fd5b6008828154811061088c5761088b6128d8565b5b90600052602060002001549050919050565b6000806002600084815260200190815260200160002060009054906101000a900473ffffffffffffffffffffffffffffffffffffffff169050600073ffffffffffffffffffffffffffffffffffffffff168173ffffffffffffffffffffffffffffffffffffffff161415610947576040517f08c379a000000000000000000000000000000000000000000000000000000000815260040161093e90612979565b60405180910390fd5b80915050919050565b60008073ffffffffffffffffffffffffffffffffffffffff168273ffffffffffffffffffffffffffffffffffffffff1614156109c1576040517f08c379a00000000000000000000000000000000000000000000000000000000081526004016109b890612a0b565b60405180910390fd5b600360008373ffffffffffffffffffffffffffffffffffffffff1673ffffffffffffffffffffffffffffffffffffffff168152602001908152602001600020549050919050565b606060018054610a17906124a8565b80601f0160208091040260200160405190810160405280929190818152602001828054610a43906124a8565b8015610a905780601f10610a6557610100808354040283529160200191610a90565b820191906000526020600020905b815481529060010190602001808311610a7357829003601f168201915b5050505050905090565b610aac610aa5610e06565b8383611329565b5050565b610ac1610abb610e06565b83610ec7565b610b00576040517f08c379a0000000000000000000000000000000000000000000000000000000008152600401610af790612702565b60405180910390fd5b610b0c84848484611496565b50505050565b6060600b60008381526020019081526020016000208054610b32906124a8565b80601f0160208091040260200160405190810160405280929190818152602001828054610b5e906124a8565b8015610bab5780601f10610b8057610100808354040283529160200191610bab565b820191906000526020600020905b815481529060010190602001808311610b8e57829003601f168201915b50505050509050919050565b6000610bc3600a6114f2565b905090565b6000610bd4600a611500565b6000610be0600a6114f2565b9050610bf3610bed610e06565b82611516565b82600b60008381526020019081526020016000209080519060200190610c1a929190611d29565b5080915050919050565b6000600560008473ffffffffffffffffffffffffffffffffffffffff1673ffffffffffffffffffffffffffffffffffffffff16815260200190815260200160002060008373ffffffffffffffffffffffffffffffffffffffff1673ffffffffffffffffffffffffffffffffffffffff16815260200190815260200160002060009054906101000a900460ff16905092915050565b60007f80ac58cd000000000000000000000000000000000000000000000000000000007bffffffffffffffffffffffffffffffffffffffffffffffffffffffff1916827bffffffffffffffffffffffffffffffffffffffffffffffffffffffff19161480610d8357507f5b5e139f000000000000000000000000000000000000000000000000000000007bffffffffffffffffffffffffffffffffffffffffffffffffffffffff1916827bffffffffffffffffffffffffffffffffffffffffffffffffffffffff1916145b80610d935750610d92826116f0565b5b9050919050565b60008073ffffffffffffffffffffffffffffffffffffffff166002600084815260200190815260200160002060009054906101000a900473ffffffffffffffffffffffffffffffffffffffff1673ffffffffffffffffffffffffffffffffffffffff1614159050919050565b600033905090565b816004600083815260200190815260200160002060006101000a81548173ffffffffffffffffffffffffffffffffffffffff021916908373ffffffffffffffffffffffffffffffffffffffff160217905550808273ffffffffffffffffffffffffffffffffffffffff16610e818361089e565b73ffffffffffffffffffffffffffffffffffffffff167f8c5be1e5ebec7d5bd14f71427d1e84f3dd0314c0f7b2291e5b200ac8c7c3b92560405160405180910390a45050565b6000610ed282610d9a565b610f11576040517f08c379a0000000000000000000000000000000000000000000000000000000008152600401610f0890612a9d565b60405180910390fd5b6000610f1c8361089e565b90508073ffffffffffffffffffffffffffffffffffffffff168473ffffffffffffffffffffffffffffffffffffffff161480610f8b57508373ffffffffffffffffffffffffffffffffffffffff16610f7384610502565b73ffffffffffffffffffffffffffffffffffffffff16145b80610f9c5750610f9b8185610c24565b5b91505092915050565b8273ffffffffffffffffffffffffffffffffffffffff16610fc58261089e565b73ffffffffffffffffffffffffffffffffffffffff161461101b576040517f08c379a000000000000000000000000000000000000000000000000000000000815260040161101290612b2f565b60405180910390fd5b600073ffffffffffffffffffffffffffffffffffffffff168273ffffffffffffffffffffffffffffffffffffffff16141561108b576040517f08c379a000000000000000000000000000000000000000000000000000000000815260040161108290612bc1565b60405180910390fd5b61109683838361175a565b6110a1600082610e0e565b6001600360008573ffffffffffffffffffffffffffffffffffffffff1673ffffffffffffffffffffffffffffffffffffffff16815260200190815260200160002060008282546110f19190612c10565b925050819055506001600360008473ffffffffffffffffffffffffffffffffffffffff1673ffffffffffffffffffffffffffffffffffffffff16815260200190815260200160002060008282546111489190612c44565b92505081905550816002600083815260200190815260200160002060006101000a81548173ffffffffffffffffffffffffffffffffffffffff021916908373ffffffffffffffffffffffffffffffffffffffff160217905550808273ffffffffffffffffffffffffffffffffffffffff168473ffffffffffffffffffffffffffffffffffffffff167fddf252ad1be2c89b69c2b068fc378daa952ba7f163c4a11628f55a4df523b3ef60405160405180910390a461120783838361186e565b505050565b60006112178261089e565b90506112258160008461175a565b611230600083610e0e565b6001600360008373ffffffffffffffffffffffffffffffffffffffff1673ffffffffffffffffffffffffffffffffffffffff16815260200190815260200160002060008282546112809190612c10565b925050819055506002600083815260200190815260200160002060006101000a81549073ffffffffffffffffffffffffffffffffffffffff021916905581600073ffffffffffffffffffffffffffffffffffffffff168273ffffffffffffffffffffffffffffffffffffffff167fddf252ad1be2c89b69c2b068fc378daa952ba7f163c4a11628f55a4df523b3ef60405160405180910390a46113258160008461186e565b5050565b8173ffffffffffffffffffffffffffffffffffffffff168373ffffffffffffffffffffffffffffffffffffffff161415611398576040517f08c379a000000000000000000000000000000000000000000000000000000000815260040161138f90612ce6565b60405180910390fd5b80600560008573ffffffffffffffffffffffffffffffffffffffff1673ffffffffffffffffffffffffffffffffffffffff16815260200190815260200160002060008473ffffffffffffffffffffffffffffffffffffffff1673ffffffffffffffffffffffffffffffffffffffff16815260200190815260200160002060006101000a81548160ff0219169083151502179055508173ffffffffffffffffffffffffffffffffffffffff168373ffffffffffffffffffffffffffffffffffffffff167f17307eab39ab6107e8899845ad3d59bd9653f200f220920489ca2b5937696c31836040516114899190611e80565b60405180910390a3505050565b6114a1848484610fa5565b6114ad84848484611873565b6114ec576040517f08c379a00000000000000000000000000000000000000000000000000000000081526004016114e390612d78565b60405180910390fd5b50505050565b600081600001549050919050565b6001816000016000828254019250508190555050565b600073ffffffffffffffffffffffffffffffffffffffff168273ffffffffffffffffffffffffffffffffffffffff161415611586576040517f08c379a000000000000000000000000000000000000000000000000000000000815260040161157d90612de4565b60405180910390fd5b61158f81610d9a565b156115cf576040517f08c379a00000000000000000000000000000000000000000000000000000000081526004016115c690612e50565b60405180910390fd5b6115db6000838361175a565b6001600360008473ffffffffffffffffffffffffffffffffffffffff1673ffffffffffffffffffffffffffffffffffffffff168152602001908152602001600020600082825461162b9190612c44565b92505081905550816002600083815260200190815260200160002060006101000a81548173ffffffffffffffffffffffffffffffffffffffff021916908373ffffffffffffffffffffffffffffffffffffffff160217905550808273ffffffffffffffffffffffffffffffffffffffff16600073ffffffffffffffffffffffffffffffffffffffff167fddf252ad1be2c89b69c2b068fc378daa952ba7f163c4a11628f55a4df523b3ef60405160405180910390a46116ec6000838361186e565b5050565b60007f01ffc9a7000000000000000000000000000000000000000000000000000000007bffffffffffffffffffffffffffffffffffffffffffffffffffffffff1916827bffffffffffffffffffffffffffffffffffffffffffffffffffffffff1916149050919050565b6117658383836119fb565b600073ffffffffffffffffffffffffffffffffffffffff168373ffffffffffffffffffffffffffffffffffffffff1614156117a8576117a381611a00565b6117e7565b8173ffffffffffffffffffffffffffffffffffffffff168373ffffffffffffffffffffffffffffffffffffffff16146117e6576117e58382611a49565b5b5b600073ffffffffffffffffffffffffffffffffffffffff168273ffffffffffffffffffffffffffffffffffffffff16141561182a5761182581611bb6565b611869565b8273ffffffffffffffffffffffffffffffffffffffff168273ffffffffffffffffffffffffffffffffffffffff1614611868576118678282611c87565b5b5b505050565b505050565b60006118948473ffffffffffffffffffffffffffffffffffffffff16611d06565b156119ee578373ffffffffffffffffffffffffffffffffffffffff1663150b7a026118bd610e06565b8786866040518563ffffffff1660e01b81526004016118df9493929190612ec5565b6020604051808303816000875af192505050801561191b57506040513d601f19601f820116820180604052508101906119189190612f26565b60015b61199e573d806000811461194b576040519150601f19603f3d011682016040523d82523d6000602084013e611950565b606091505b50600081511415611996576040517f08c379a000000000000000000000000000000000000000000000000000000000815260040161198d90612d78565b60405180910390fd5b805181602001fd5b63150b7a0260e01b7bffffffffffffffffffffffffffffffffffffffffffffffffffffffff1916817bffffffffffffffffffffffffffffffffffffffffffffffffffffffff1916149150506119f3565b600190505b949350505050565b505050565b6008805490506009600083815260200190815260200160002081905550600881908060018154018082558091505060019003906000526020600020016000909190919091505550565b60006001611a5684610950565b611a609190612c10565b9050600060076000848152602001908152602001600020549050818114611b45576000600660008673ffffffffffffffffffffffffffffffffffffffff1673ffffffffffffffffffffffffffffffffffffffff168152602001908152602001600020600084815260200190815260200160002054905080600660008773ffffffffffffffffffffffffffffffffffffffff1673ffffffffffffffffffffffffffffffffffffffff168152602001908152602001600020600084815260200190815260200160002081905550816007600083815260200190815260200160002081905550505b6007600084815260200190815260200160002060009055600660008573ffffffffffffffffffffffffffffffffffffffff1673ffffffffffffffffffffffffffffffffffffffff16815260200190815260200160002060008381526020019081526020016000206000905550505050565b60006001600880549050611bca9190612c10565b9050600060096000848152602001908152602001600020549050600060088381548110611bfa57611bf96128d8565b5b906000526020600020015490508060088381548110611c1c57611c1b6128d8565b5b906000526020600020018190555081600960008381526020019081526020016000208190555060096000858152602001908152602001600020600090556008805480611c6b57611c6a612f53565b5b6001900381819060005260206000200160009055905550505050565b6000611c9283610950565b905081600660008573ffffffffffffffffffffffffffffffffffffffff1673ffffffffffffffffffffffffffffffffffffffff168152602001908152602001600020600083815260200190815260200160002081905550806007600084815260200190815260200160002081905550505050565b6000808273ffffffffffffffffffffffffffffffffffffffff163b119050919050565b828054611d35906124a8565b90600052602060002090601f016020900481019282611d575760008555611d9e565b82601f10611d7057805160ff1916838001178555611d9e565b82800160010185558215611d9e579182015b82811115611d9d578251825591602001919060010190611d82565b5b509050611dab9190611daf565b5090565b5b80821115611dc8576000816000905550600101611db0565b5090565b6000604051905090565b600080fd5b600080fd5b60007fffffffff0000000000000000000000000000000000000000000000000000000082169050919050565b611e1581611de0565b8114611e2057600080fd5b50565b600081359050611e3281611e0c565b92915050565b600060208284031215611e4e57611e4d611dd6565b5b6000611e5c84828501611e23565b91505092915050565b60008115159050919050565b611e7a81611e65565b82525050565b6000602082019050611e956000830184611e71565b92915050565b600081519050919050565b600082825260208201905092915050565b60005b83811015611ed5578082015181840152602081019050611eba565b83811115611ee4576000848401525b50505050565b6000601f19601f8301169050919050565b6000611f0682611e9b565b611f108185611ea6565b9350611f20818560208601611eb7565b611f2981611eea565b840191505092915050565b60006020820190508181036000830152611f4e8184611efb565b905092915050565b6000819050919050565b611f6981611f56565b8114611f7457600080fd5b50565b600081359050611f8681611f60565b92915050565b600060208284031215611fa257611fa1611dd6565b5b6000611fb084828501611f77565b91505092915050565b600073ffffffffffffffffffffffffffffffffffffffff82169050919050565b6000611fe482611fb9565b9050919050565b611ff481611fd9565b82525050565b600060208201905061200f6000830184611feb565b92915050565b61201e81611fd9565b811461202957600080fd5b50565b60008135905061203b81612015565b92915050565b6000806040838503121561205857612057611dd6565b5b60006120668582860161202c565b925050602061207785828601611f77565b9150509250929050565b61208a81611f56565b82525050565b60006020820190506120a56000830184612081565b92915050565b6000806000606084860312156120c4576120c3611dd6565b5b60006120d28682870161202c565b93505060206120e38682870161202c565b92505060406120f486828701611f77565b9150509250925092565b60006020828403121561211457612113611dd6565b5b60006121228482850161202c565b91505092915050565b61213481611e65565b811461213f57600080fd5b50565b6000813590506121518161212b565b92915050565b6000806040838503121561216e5761216d611dd6565b5b600061217c8582860161202c565b925050602061218d85828601612142565b9150509250929050565b600080fd5b600080fd5b7f4e487b7100000000000000000000000000000000000000000000000000000000600052604160045260246000fd5b6121d982611eea565b810181811067ffffffffffffffff821117156121f8576121f76121a1565b5b80604052505050565b600061220b611dcc565b905061221782826121d0565b919050565b600067ffffffffffffffff821115612237576122366121a1565b5b61224082611eea565b9050602081019050919050565b82818337600083830152505050565b600061226f61226a8461221c565b612201565b90508281526020810184848401111561228b5761228a61219c565b5b61229684828561224d565b509392505050565b600082601f8301126122b3576122b2612197565b5b81356122c384826020860161225c565b91505092915050565b600080600080608085870312156122e6576122e5611dd6565b5b60006122f48782880161202c565b94505060206123058782880161202c565b935050604061231687828801611f77565b925050606085013567ffffffffffffffff81111561233757612336611ddb565b5b6123438782880161229e565b91505092959194509250565b600067ffffffffffffffff82111561236a576123696121a1565b5b61237382611eea565b9050602081019050919050565b600061239361238e8461234f565b612201565b9050828152602081018484840111156123af576123ae61219c565b5b6123ba84828561224d565b509392505050565b600082601f8301126123d7576123d6612197565b5b81356123e7848260208601612380565b91505092915050565b60006020828403121561240657612405611dd6565b5b600082013567ffffffffffffffff81111561242457612423611ddb565b5b612430848285016123c2565b91505092915050565b600080604083850312156124505761244f611dd6565b5b600061245e8582860161202c565b925050602061246f8582860161202c565b9150509250929050565b7f4e487b7100000000000000000000000000000000000000000000000000000000600052602260045260246000fd5b600060028204905060018216806124c057607f821691505b602082108114156124d4576124d3612479565b5b50919050565b7f4552433732313a20617070726f76656420717565727920666f72206e6f6e657860008201527f697374656e7420746f6b656e0000000000000000000000000000000000000000602082015250565b6000612536602c83611ea6565b9150612541826124da565b604082019050919050565b6000602082019050818103600083015261256581612529565b9050919050565b7f4552433732313a20617070726f76616c20746f2063757272656e74206f776e6560008201527f7200000000000000000000000000000000000000000000000000000000000000602082015250565b60006125c8602183611ea6565b91506125d38261256c565b604082019050919050565b600060208201905081810360008301526125f7816125bb565b9050919050565b7f4552433732313a20617070726f76652063616c6c6572206973206e6f74206f7760008201527f6e6572206e6f7220617070726f76656420666f7220616c6c0000000000000000602082015250565b600061265a603883611ea6565b9150612665826125fe565b604082019050919050565b600060208201905081810360008301526126898161264d565b9050919050565b7f4552433732313a207472616e736665722063616c6c6572206973206e6f74206f60008201527f776e6572206e6f7220617070726f766564000000000000000000000000000000602082015250565b60006126ec603183611ea6565b91506126f782612690565b604082019050919050565b6000602082019050818103600083015261271b816126df565b9050919050565b7f455243373231456e756d657261626c653a206f776e657220696e646578206f7560008201527f74206f6620626f756e6473000000000000000000000000000000000000000000602082015250565b600061277e602b83611ea6565b915061278982612722565b604082019050919050565b600060208201905081810360008301526127ad81612771565b9050919050565b7f4552433732314275726e61626c653a2063616c6c6572206973206e6f74206f7760008201527f6e6572206e6f7220617070726f76656400000000000000000000000000000000602082015250565b6000612810603083611ea6565b915061281b826127b4565b604082019050919050565b6000602082019050818103600083015261283f81612803565b9050919050565b7f455243373231456e756d657261626c653a20676c6f62616c20696e646578206f60008201527f7574206f6620626f756e64730000000000000000000000000000000000000000602082015250565b60006128a2602c83611ea6565b91506128ad82612846565b604082019050919050565b600060208201905081810360008301526128d181612895565b9050919050565b7f4e487b7100000000000000000000000000000000000000000000000000000000600052603260045260246000fd5b7f4552433732313a206f776e657220717565727920666f72206e6f6e657869737460008201527f656e7420746f6b656e0000000000000000000000000000000000000000000000602082015250565b6000612963602983611ea6565b915061296e82612907565b604082019050919050565b6000602082019050818103600083015261299281612956565b9050919050565b7f4552433732313a2062616c616e636520717565727920666f7220746865207a6560008201527f726f206164647265737300000000000000000000000000000000000000000000602082015250565b60006129f5602a83611ea6565b9150612a0082612999565b604082019050919050565b60006020820190508181036000830152612a24816129e8565b9050919050565b7f4552433732313a206f70657261746f7220717565727920666f72206e6f6e657860008201527f697374656e7420746f6b656e0000000000000000000000000000000000000000602082015250565b6000612a87602c83611ea6565b9150612a9282612a2b565b604082019050919050565b60006020820190508181036000830152612ab681612a7a565b9050919050565b7f4552433732313a207472616e736665722066726f6d20696e636f72726563742060008201527f6f776e6572000000000000000000000000000000000000000000000000000000602082015250565b6000612b19602583611ea6565b9150612b2482612abd565b604082019050919050565b60006020820190508181036000830152612b4881612b0c565b9050919050565b7f4552433732313a207472616e7366657220746f20746865207a65726f2061646460008201527f7265737300000000000000000000000000000000000000000000000000000000602082015250565b6000612bab602483611ea6565b9150612bb682612b4f565b604082019050919050565b60006020820190508181036000830152612bda81612b9e565b9050919050565b7f4e487b7100000000000000000000000000000000000000000000000000000000600052601160045260246000fd5b6000612c1b82611f56565b9150612c2683611f56565b925082821015612c3957612c38612be1565b5b828203905092915050565b6000612c4f82611f56565b9150612c5a83611f56565b9250827fffffffffffffffffffffffffffffffffffffffffffffffffffffffffffffffff03821115612c8f57612c8e612be1565b5b828201905092915050565b7f4552433732313a20617070726f766520746f2063616c6c657200000000000000600082015250565b6000612cd0601983611ea6565b9150612cdb82612c9a565b602082019050919050565b60006020820190508181036000830152612cff81612cc3565b9050919050565b7f4552433732313a207472616e7366657220746f206e6f6e20455243373231526560008201527f63656976657220696d706c656d656e7465720000000000000000000000000000602082015250565b6000612d62603283611ea6565b9150612d6d82612d06565b604082019050919050565b60006020820190508181036000830152612d9181612d55565b9050919050565b7f4552433732313a206d696e7420746f20746865207a65726f2061646472657373600082015250565b6000612dce602083611ea6565b9150612dd982612d98565b602082019050919050565b60006020820190508181036000830152612dfd81612dc1565b9050919050565b7f4552433732313a20746f6b656e20616c7265616479206d696e74656400000000600082015250565b6000612e3a601c83611ea6565b9150612e4582612e04565b602082019050919050565b60006020820190508181036000830152612e6981612e2d565b9050919050565b600081519050919050565b600082825260208201905092915050565b6000612e9782612e70565b612ea18185612e7b565b9350612eb1818560208601611eb7565b612eba81611eea565b840191505092915050565b6000608082019050612eda6000830187611feb565b612ee76020830186611feb565b612ef46040830185612081565b8181036060830152612f068184612e8c565b905095945050505050565b600081519050612f2081611e0c565b92915050565b600060208284031215612f3c57612f3b611dd6565b5b6000612f4a84828501612f11565b91505092915050565b7f4e487b7100000000000000000000000000000000000000000000000000000000600052603160045260246000fdfea2646970667358221220f49eb4e45126d3a67cecaced15ec49ed9a0f8afa9a21f4b3ae63a69b76f517d364736f6c634300080b0033",
  "immutableReferences": {},
  "source": "// SPDX-License-Identifier: UNLICENSED\r\npragma solidity >=0.8.0;\r\n\r\nimport \"@openzeppelin/contracts/utils/Counters.sol\";\r\nimport \"@openzeppelin/contracts/token/ERC721/extensions/ERC721Enumerable.sol\";\r\n\r\ncontract StairwayToHeaven is ERC721Enumerable {\r\n    using Counters for Counters.Counter;\r\n    Counters.Counter private _tokenIds;\r\n    mapping(uint256 => string) private _tokenURIs;\r\n\r\n    constructor() ERC721(\"StairwayToHeaven\", \"S2H\") {}\r\n\r\n    function mint(string memory existingTokenURI)\r\n        public\r\n        returns (uint256)\r\n    {\r\n        _tokenIds.increment();\r\n        uint256 newTokenId = _tokenIds.current();\r\n\r\n        _mint(_msgSender(), newTokenId);\r\n        _tokenURIs[newTokenId] = existingTokenURI;\r\n\r\n        return newTokenId;\r\n    }\r\n\r\n    function burn(uint256 tokenId) public {\r\n        require(_isApprovedOrOwner(_msgSender(), tokenId), \"ERC721Burnable: caller is not owner nor approved\");\r\n        _burn(tokenId);\r\n    }\r\n\r\n    function tokenURI(uint256 tokenID) public view override returns (string memory)  {\r\n        // require(_msgSender() == ERC721.ownerOf(tokenID));\r\n        return _tokenURIs[tokenID];\r\n    }\r\n\r\n    function numMinted() public view returns (uint256)  {\r\n        // require(_msgSender() == ERC721.ownerOf(tokenID));\r\n        return _tokenIds.current();\r\n    }\r\n}\r\n",
  "sourcePath": "A:\\blck-hackathon\\contracts\\StairwayToHeaven.sol",
  "compiler": {
    "name": "solc",
    "version": "0.8.11+commit.d7f03943.Emscripten.clang"
  },
  "schemaVersion": "3.4.5",
  "updatedAt": "2022-02-18T08:53:57.307Z",
  "devdoc": {
    "kind": "dev",
    "methods": {
      "approve(address,uint256)": {
        "details": "See {IERC721-approve}."
      },
      "balanceOf(address)": {
        "details": "See {IERC721-balanceOf}."
      },
      "getApproved(uint256)": {
        "details": "See {IERC721-getApproved}."
      },
      "isApprovedForAll(address,address)": {
        "details": "See {IERC721-isApprovedForAll}."
      },
      "name()": {
        "details": "See {IERC721Metadata-name}."
      },
      "ownerOf(uint256)": {
        "details": "See {IERC721-ownerOf}."
      },
      "safeTransferFrom(address,address,uint256)": {
        "details": "See {IERC721-safeTransferFrom}."
      },
      "safeTransferFrom(address,address,uint256,bytes)": {
        "details": "See {IERC721-safeTransferFrom}."
      },
      "setApprovalForAll(address,bool)": {
        "details": "See {IERC721-setApprovalForAll}."
      },
      "supportsInterface(bytes4)": {
        "details": "See {IERC165-supportsInterface}."
      },
      "symbol()": {
        "details": "See {IERC721Metadata-symbol}."
      },
      "tokenByIndex(uint256)": {
        "details": "See {IERC721Enumerable-tokenByIndex}."
      },
      "tokenOfOwnerByIndex(address,uint256)": {
        "details": "See {IERC721Enumerable-tokenOfOwnerByIndex}."
      },
      "totalSupply()": {
        "details": "See {IERC721Enumerable-totalSupply}."
      },
      "transferFrom(address,address,uint256)": {
        "details": "See {IERC721-transferFrom}."
      }
    },
    "version": 1
  },
  "userdoc": {
    "kind": "user",
    "methods": {},
    "version": 1
  }
}